:03000000020006F5
:03005F0002000399
:0300030002006296
:20006200E4F508F509C3E508940AE5099400501575A0FF75A000AE08AF0974012EF508E44F
:200082003FF50980E075A0FFE4F508F509C3E50894F4E5099401502EE4F50AF50BC3E50A00
:2000A20094E8E50B9403500FAE0AAF0B74012EF50AE43FF50B80E6AE08AF0974012EF50831
:2000C200E43FF50980C7E4F5A0F508F509C3E50894F4E509940150ADE4F50AF50BC3E50AF5
:2000E20094E8E50B9403500FAE0AAF0B74012EF50AE43FF50B80E6AE08AF0974012EF508F1
:06010200E43FF50980C78F
:06003500E478FFF6D8FD9F
:200013007900E94400601B7A0090010C780175A000E493F2A308B8000205A0D9F4DAF27586
:02003300A0FF2C
:20003B007800E84400600A790175A000E4F309D8FC7800E84400600C7900900001E4F0A3C3
:04005B00D8FCD9FAFA
:0D00060075810B120108E582600302000302
:0401080075820022DA
:00000001FF
